S00F0000414443333238502E7372656360
S11300000C9434000C9451000C9451000C94510045
S11300100C9451000C9451000C9451000C94510018
S11300200C9451000C9451000C9451000C94510008
S11300300C9451000C9451000C9451000C945100F8
S11300400C9451000C9451000C9451000C945100E8
S11300500C9451000C9451000C9451000C945100D8
S11300600C9451000C94510011241FBECFEFD8E022
S1130070DEBFCDBF11E0A0E0B1E0E4E3FFE002C0E9
S113008005900D92A430B107D9F711E0A4E0B1E0D6
S113009001C01D92A830B107E1F70E94F5000C944D
S11300A098070C94000080FF02C0439A01C0439853
S11300B081FF02C0429A01C0429882FF02C0419A65
S11300C001C0419883FF02C0409A08954098089562
S11300D045980E945300449A8FE39FE10197F1F7FA
S11300E000C000004498089580E00E94680081E008
S11300F00E94680008951F93813061F4162F1158EF
S1130100812F82958F700E946800812F8F700E94CA
S113011068000DC0823059F4162F1154812F829536
S11301208F700E946800812F8F700E9468001F9159
S1130130089580E00E9453008FE39CE90197F1F752
S113014000C0000083E00E9468008FE097E20197FE
S1130150F1F700C0000083E00E9468008FEE95E58F
S11301600197F1F700C0000083E00E94680082E07C
S11301700E94680082E00E94680088E00E94680093
S113018080E00E9468008CE00E94680080E00E9489
S1130190680086E00E94680008951F93182F459A0E
S11301A082958F700E945300449A8AE68A95F1F7EB
S11301B000C04498812F8F700E945300449A8AE6AD
S11301C08A95F1F700C044981F910895CF93DF9367
S11301D0EC018881882331F021960E94CD00899119
S11301E08823D9F7DF91CF910895EF92FF920F936F
S11301F01F93DF93CF93CDB7DEB72A970FB6F8944A
S1130200DEBF0FBECDBF8FEF87B90E9499000E9459
S113021074008FEF93EDA0E381509040A040E1F78C
S113022000C000008E010F5F1F4F0F2EF0E0EF2E75
S1130230F1E0FF2EF02D80E090E00E94680180E064
S11302400E945B0180E090E060E971E00E948B0114
S113025090930501809304010E94FD01909307018E
S11302608093060181E061E00E947B0000D000D011
S113027000D0EDB7FEB73196ADB7BEB712961C935A
S11302800E931197F382E282809106019091070107
S1130290958384830E94B7048DB79EB706960FB6E4
S11302A0F8949EBF0FBE8DBFC8010E94E600C3CF65
S11302B087E58CBD089595ED9A95F1F700008823A4
S11302C029F481E0199B03C080E0089580E008953B
S11302D0CF93DF93EC012198299A239A259A229AA5
S11302E02498209A21982B9A2D9A2A9A2C9A2A9A01
S11302F00E945801209761F42A9880E88EBD0DB4BD
S113030007FEFDCF81EC8EBD0DB407FEFDCF2A9A0A
S1130310DF91CF910895EF92FF920F931F93CF93A4
S1130320DF93EC018B010E94580185ED8A95F1F76A
S113033000002097D9F42A9881E08EBD0DB407FE01
S1130340FDCF8FEF8EBD0DB407FEFDCF8EB52A9A7B
S11303502A9892E09EBD0DB407FEFDCF9FEF9EBD8F
S11303600DB407FEFDCF2EB52A9A02C080E020E02E
S113037095ED9A95F1F70000C82FDD27C7FDD095BC
S11303809C2F8827C22FDD27C7FDD095C80FD91F02
S1130390B801882777FD8095982F0E94C8037B01B8
S11303A08C01D595C795BE01882777FD8095982F38
S11303B00E94C8039B01AC01C801B7010E94540408
S11303C020E030E040E251E40E94540420E030E0B8
S11303D040E058E30E94540420E030E040E05FE352
S11303E00E94C9020E949503862F972FDF91CF9117
S11303F01F910F91FF90EF9008952F923F924F928B
S11304005F926F927F928F929F92AF92BF92CF92A0
S1130410DF92EF92FF920F931F93DF93CF9300D05D
S113042000D0CDB7DEB79C01B901882777FD809550
S1130430982F0E94C80320E030E040E251E40E947B
S11304402D03F62E072F182FE92E2F2D302F412F95
S11304505E2D0E94540469837A838B839C832F2DA1
S1130460302F412F5E2D0E945404562E472E382ED5
S1130470292E2F2D302F412F5E2D0E945404D62E6D
S1130480C72EB82EA92E2F2D302F412F5E2D0E945E
S113049054042EE837E94FE25FE20E9454043B0122
S11304A04C016D2D7C2D8B2D9A2D2DE23DE74DEFCA
S11304B052E30E9454049B01AC01C401B3010E94A5
S11304C0C8025B016C01652D742D832D922D2FE3E1
S11304D036E840EA56E30E9454049B01AC01C6018D
S11304E0B5010E94C8025B016C0159814A813B81BC
S11304F02C81652F742F832F922F2EED3EE34BE238
S11305005BE30E9454049B01AC01C601B5010E9447
S1130510C9025B016C016F2D702F812F9E2D29E183
S113052034E04EE050E40E9454049B01AC01C60147
S1130530B5010E94C90226E636EE41E753E40E9463
S1130540C80220E030E040E251E40E94540420E07C
S113055030E040E05FE30E94C9020E949503862FC9
S1130560972F0F900F900F900F90CF91DF911F91C5
S11305700F91FF90EF90DF90CF90BF90AF909F903E
S11305808F907F906F905F904F903F902F90089541
S11305905058BB27AA270ED04DC13ED130F043D1CD
S11305A020F031F49F3F11F41EF433C10EF4E095B2
S11305B0E7FB29C1E92F4FD180F3BA17620773070C
S11305C08407950718F071F49EF567C10EF4E09561
S11305D00B2EBA2FA02D0B01B90190010C01CA01F9
S11305E0A0011124FF27591B99F0593F50F4503EA4
S11305F068F11A16F040A22F232F342F4427585F96
S1130600F3CF469537952795A795F0405395C9F7AD
S11306107EF41F16BA0B620B730B840BBAF0915065
S1130620A1F0FF0FBB1F661F771F881FC2F70EC004
S1130630BA0F621F731F841F48F4879577956795D7
S1130640B795F7959E3F08F0B3CF9395880F08F0C0
S11306509927EE0F9795879508950CD0EBC0E3D0BA
S113066040F0DAD030F021F45F3F19F0CCC05111E2
S113067015C1CFC0F0D098F39923C9F35523B1F332
S1130680951B550BBB27AA2762177307840738F0FD
S11306909F5F5F4F220F331F441FAA1FA9F333D05C
S11306A00E2E3AF0E0E830D091505040E695001C10
S11306B0CAF729D0FE2F27D0660F771F881FBB1FCC
S11306C0261737074807AB07B0E809F0BB0B802DA6
S11306D0BF01FF2793585F4F2AF09E3F510568F0F2
S11306E092C0DCC05F3FECF3983EDCF386957795CF
S11306F06795B795F7959F5FC9F7880F911D9695F4
S1130700879597F90895E1E0660F771F881FBB1F4F
S1130710621773078407BA0720F0621B730B840BFC
S1130720BA0BEE1F88F7E095089504D06894B111D0
S1130730B5C0089598D088F09F5790F0B92F9927A5
S1130740B751A0F0D1F0660F771F881F991F1AF0D8
S1130750BA95C9F712C0B13081F09FD0B1E00895C5
S11307609CC0672F782F8827B85F39F0B93FCCF346
S1130770869577956795B395D9F73EF490958095CE
S1130780709561957F4F8F4F9F4F0895E89409C0EE
S113079097FB3EF490958095709561957F4F8F4FB0
S11307A09F4F9923A9F0F92F96E9BB279395F695C6
S11307B0879577956795B795F111F8CFFAF4BB0F44
S11307C011F460FF1BC06F5F7F4F8F4F9F4F16C0A8
S11307D0882311F096E911C0772321F09EE8872F32
S11307E0762F05C0662371F096E8862F70E060E0EE
S11307F02AF09A95660F771F881FDAF7880F969567
S1130800879597F9089597F99F6780E870E060E00D
S113081008959FEF80EC089500240A941616170695
S113082018060906089500240A94121613061406DD
S113083005060895092E0394000C11F4882352F040
S1130840BB0F40F4BF2B11F460FF04C06F5F7F4FF8
S11308508F4F9F4F089557FD9058440F551F59F0DF
S11308605F3F71F04795880F97FB991F61F09F3F99
S113087079F087950895121613061406551FF2CFC2
S11308804695F1DF08C0161617061806991FF1CF12
S113089086957105610508940895E894BB27662739
S11308A07727CB0197F908950BD0C4CFB5DF28F093
S11308B0BADF18F0952309F0A6CFABCF1124EECF01
S11308C0CADFA0F3959FD1F3950F50E0551F629FA7
S11308D0F001729FBB27F00DB11D639FAA27F00D95
S11308E0B11DAA1F649F6627B00DA11D661F829FBC
S11308F02227B00DA11D621F739FB00DA11D621FA1
S1130900839FA00D611D221F749F3327A00D611DBD
S1130910231F849F600D211D822F762F6A2F11249F
S11309209F5750408AF0E1F088234AF0EE0FFF1FF2
S1130930BB1F661F771F881F91505040A9F79E3F29
S1130940510570F060CFAACF5F3FECF3983EDCF323
S1130950869577956795B795F795E7959F5FC1F766
S1130960FE2B880F911D9695879597F90895AEE013
S1130970B0E0EDEBF4E00C946F070D891E8986E07E
S11309808C831A8309838FEF9FE79E838D839E0157
S1130990275E3F4FCE0101966F89788DA9010E9491
S11309A0DA04EF81F885E00FF11F10822E96E4E05F
S11309B00C948B07ACE0B0E0E0EEF4E00C9461073B
S11309C06C011B018A01FC0117821682838181FF5D
S11309D0D1C12E010894411C511CF6019381F101EF
S11309E093FD859193FF81911F01882309F4BEC172
S11309F0853239F493FD859193FF81911F018532EE
S1130A0029F490E0B6010E94D706E7CFEE24FF2434
S1130A1020E02032B0F48B3269F08C3228F480323A
S1130A2051F0833271F40BC08D3239F0803349F4C4
S1130A3021602CC02260246029C0286027C0206166
S1130A4025C027FD2CC0382F30533A3098F426FFA8
S1130A5008C08E2D880FE82EEE0CEE0CE80EE30E87
S1130A6015C08F2D880FF82EFF0CFF0CF80EF30E17
S1130A7020620CC08E3221F426FD78C1206406C0A9
S1130A808C3611F4206802C0883649F4F10193FDD4
S1130A90859193FF81911F01882309F0BACF982F84
S1130AA09554933018F09052933028F40C5F1F4FF4
S1130AB0FFE3F9830DC0833631F0833771F083355A
S1130AC009F060C022C0F801808189830E5F1F4F46
S1130AD0420171E0A72EB12C16C062E0662E712C83
S1130AE0600E711EF8018080918026FF03C06E2D78
S1130AF070E002C06FEF7FEFC4012C870E94CC0628
S1130B005C0183012C852F7717C052E0652E712C70
S1130B10600E711EF8018080918026FF03C06E2D47
S1130B2070E002C06FEF7FEFC4012C870E94C10602
S1130B305C012C852068830123FD20C008C080E26D
S1130B4090E0B6012C870E94D706FA942C858F2D4D
S1130B5090E0A816B90698F311C0F40127FD859119
S1130B6027FF81914F0190E0B6012C870E94D706A0
S1130B702C85F110FA940894A108B108A114B104C9
S1130B8061F7F1C0843611F0893649F527FF08C0B2
S1130B90F80160817181828193810C5F1F4F09C0CC
S1130BA0F80160817181882777FD8095982F0E5F09
S1130BB01F4F4FE6B42EB22297FF09C0909580953F
S1130BC0709561957F4F8F4F9F4FF0E8BF2AA20128
S1130BD02AE030E00E940307782E741845C0853758
S1130BE031F43FEEB32EB2222AE030E025C099EF73
S1130BF0B92EB2228F36C1F0803720F4883509F03F
S1130C00B5C00DC0803721F0883709F0AFC002C0ED
S1130C1020E1B22AB4FE0BC084E0B82A08C0B4FEB6
S1130C2009C0E6E0BE2A06C028E030E005C020E1A5
S1130C3030E002C020E132E0B7FE08C0F801608174
S1130C407181828193810C5F1F4F07C0F80160811D
S1130C50718180E090E00E5F1F4FA2010E940307A4
S1130C60782E7418FFE7BF22B6FE0BC02EEFB22217
S1130C707E1438F4B4FE07C0B2FC05C08FEEB8226F
S1130C8002C0A72C01C0AE2C8B2D90E0B4FE0DC089
S1130C90FE01E70DF11D2081203319F4E9EEBE2297
S1130CA009C0A394B2FE06C004C086789070009771
S1130CB009F0A3948B2C9924B3FC14C0B0FE0FC08C
S1130CC0AF1428F4E72CEF0CEA18AF2C08C0E72C7B
S1130CD006C080E290E0B6010E94D706A394AF1448
S1130CE0C0F304C0AF1410F4FA1801C0FF2484FE4A
S1130CF00FC080E390E0B6010E94D70682FE1FC0B9
S1130D0081FE03C088E590E010C088E790E00DC044
S1130D10C40186789070009791F081FC02C080E253
S1130D2001C08BE2B7FC8DE290E0B6010E94D706C9
S1130D3006C080E390E0B6010E94D706EA947E14D0
S1130D40C0F37A94F201E70DF11D808190E0B601C1
S1130D500E94D7067720A9F706C080E290E0B6018A
S1130D600E94D706FA94FF20C1F737CEF6012681F8
S1130D70378102C02FEF3FEFC9012C96E2E10C94BA
S1130D807D07FC010590615070400110D8F78095F3
S1130D9090958E0F9F1F0895FC0161507040019043
S1130DA00110D8F7809590958E0F9F1F08950F938B
S1130DB01F93CF93DF938C01EB018B8181FF1BC0C9
S1130DC082FF0DC02E813F818C819D8128173907B8
S1130DD064F4E881F9810193F983E88306C0E88526
S1130DE0F985802F0995009731F48E819F810196B2
S1130DF09F838E8302C00FEF1FEFC801DF91CF9155
S1130E001F910F910895FA01AA27283051F120313A
S1130E1081F1E8946F936E7F6E5F7F4F8F4F9F4F8A
S1130E20AF4FB1E03ED0B4E03CD0670F781F891FCC
S1130E309A1FA11D680F791F8A1F911DA11D6A0F9A
S1130E40711D811D911DA11D20D009F468943F914D
S1130E502AE0269F11243019305D3193DEF6CF014C
S1130E600895462F4770405D4193B3E00FD0C9F712
S1130E70F6CF462F4F70405D4A3318F0495D31FD7F
S1130E804052419302D0A9F7EACFB4E0A6959795D2
S1130E90879577956795BA95C9F7009761057105A8
S1130EA008959B01AC010A2E0694579547953795F2
S1130EB02795BA95C9F7620F731F841F951FA01D4C
S1130EC008952F923F924F925F926F927F928F92EA
S1130ED09F92AF92BF92CF92DF92EF92FF920F93C5
S1130EE01F93CF93DF93CDB7DEB7CA1BDB0B0FB6CF
S1130EF0F894DEBF0FBECDBF09942A88398848888C
S1130F005F846E847D848C849B84AA84B984C88421
S1130F10DF80EE80FD800C811B81AA81B981CE0F18
S1130F20D11D0FB6F894DEBF0FBECDBFED010895FD
S1070F30F894FFCF5F
S1070F34257500001B
S9030000FC
