S00F0000414443333238502E7372656360
S11300000C9434000C9451000C9451000C94510045
S11300100C9451000C9451000C9451000C94510018
S11300200C9451000C9451000C9451000C94510008
S11300300C9451000C9451000C9451000C945100F8
S11300400C9451000C9451000C9451000C945100E8
S11300500C9451000C9451000C9451000C945100D8
S11300600C9451000C94510011241FBECFEFD8E022
S1130070DEBFCDBF11E0A0E0B1E0EEE0F9E002C0E8
S113008005900D92A030B107D9F711E0A0E0B1E0DE
S113009001C01D92A430B107E1F70E94F5000C9451
S11300A085040C94000080FF02C0439A01C0439869
S11300B081FF02C0429A01C0429882FF02C0419A65
S11300C001C0419883FF02C0409A08954098089562
S11300D045980E945300449A8FE39FE10197F1F7FA
S11300E000C000004498089580E00E94680081E008
S11300F00E94680008951F93813061F4162F1158EF
S1130100812F82958F700E946800812F8F700E94CA
S113011068000DC0823059F4162F1154812F829536
S11301208F700E946800812F8F700E9468001F9159
S1130130089580E00E9453008FE39CE90197F1F752
S113014000C0000083E00E9468008FE097E20197FE
S1130150F1F700C0000083E00E9468008FEE95E58F
S11301600197F1F700C0000083E00E94680082E07C
S11301700E94680082E00E94680088E00E94680093
S113018080E00E9468008CE00E94680080E00E9489
S1130190680086E00E94680008951F93182F459A0E
S11301A082958F700E945300449A8AE68A95F1F7EB
S11301B000C04498812F8F700E945300449A8AE6AD
S11301C08A95F1F700C044981F910895CF93DF9367
S11301D0EC018881882331F021960E94CD00899119
S11301E08823D9F7DF91CF9108958FEF87B90E94C3
S11301F099000E9474008FEF93EDA0E3815090402A
S1130200A040E1F700C0000080E090E00E943601C9
S113021080E00E94290180E090E060E971E00E94A2
S1130220590190930101809300010E94CB019093A6
S113023003018093020181E061E00E947B008091D0
S11302400201909103010E94E600DECF87E58CBD98
S1130250089595ED9A95F1F70000882329F481E03B
S1130260199B03C080E0089580E00895CF93DF9345
S1130270EC012198299A239A259A229A2498209A63
S113028021982B9A2D9A2A9A2C9A2A9A0E9426010E
S1130290209761F42A9880E88EBD0DB407FEFDCF47
S11302A081EC8EBD0DB407FEFDCF2A9ADF91CF916C
S11302B00895EF92FF920F931F93CF93DF93EC0176
S11302C08B010E94260185ED8A95F1F700002097A5
S11302D0D9F42A9881E08EBD0DB407FEFDCF8FEFCF
S11302E08EBD0DB407FEFDCF8EB52A9A2A9892E0F2
S11302F09EBD0DB407FEFDCF9FEF9EBD0DB407FE5E
S1130300FDCF2EB52A9A02C080E020E095ED9A95A3
S1130310F1F70000C82FDD27C7FDD0959C2F882753
S1130320C22FDD27C7FDD095C80FD91FB801882774
S113033077FD8095982F0E9496037B018C01D595BB
S1130340C795BE01882777FD8095982F0E94960354
S11303509B01AC01C801B7010E94220420E030E0F7
S113036040E251E40E94220420E030E040E058E3FF
S11303700E94220420E030E040E05FE30E94970204
S11303800E946303862F972FDF91CF911F910F91C6
S1130390FF90EF9008952F923F924F925F926F9249
S11303A07F928F929F92AF92BF92CF92DF92EF9201
S11303B0FF920F931F93DF93CF9300D000D0CDB75C
S11303C0DEB79C01B901882777FD8095982F0E949C
S11303D0960320E030E040E251E40E94FB02F62E56
S11303E0072F182FE92E2F2D302F412F5E2D0E941D
S11303F0220469837A838B839C832F2D302F412F92
S11304005E2D0E942204562E472E382E292E2F2D83
S1130410302F412F5E2D0E942204D62EC72EB82ED7
S1130420A92E2F2D302F412F5E2D0E9422042EE85D
S113043037E94FE25FE20E9422043B014C016D2D3B
S11304407C2D8B2D9A2D2DE23DE74DEF52E30E943A
S113045022049B01AC01C401B3010E9496025B011A
S11304606C01652D742D832D922D2FE336E840EA1F
S113047056E30E9422049B01AC01C601B5010E940F
S113048096025B016C0159814A813B812C81652F65
S1130490742F832F922F2EED3EE34BE25BE30E94F9
S11304A022049B01AC01C601B5010E9497025B01C5
S11304B06C016F2D702F812F9E2D29E134E04EE0C9
S11304C050E40E9422049B01AC01C601B5010E94C4
S11304D0970226E636EE41E753E40E94960220E0B6
S11304E030E040E251E40E94220420E030E040E0A9
S11304F05FE30E9497020E946303862F972F0F9059
S11305000F900F900F90CF91DF911F910F91FF905B
S1130510EF90DF90CF90BF90AF909F908F907F909F
S11305206F905F904F903F902F9008955058BB2745
S1130530AA270ED04DC13ED130F043D120F031F482
S11305409F3F11F41EF433C10EF4E095E7FB29C17B
S1130550E92F4FD180F3BA17620773078407950711
S113056018F071F49EF567C10EF4E0950B2EBA2FC6
S1130570A02D0B01B90190010C01CA01A0011124A5
S1130580FF27591B99F0593F50F4503E68F11A1651
S1130590F040A22F232F342F4427585FF3CF4695E2
S11305A037952795A795F0405395C9F77EF41F1604
S11305B0BA0B620B730B840BBAF09150A1F0FF0FCE
S11305C0BB1F661F771F881FC2F70EC0BA0F621FBA
S11305D0731F841F48F4879577956795B795F795AA
S11305E09E3F08F0B3CF9395880F08F09927EE0F3C
S11305F09795879508950CD0EBC0E3D040F0DAD0FE
S113060030F021F45F3F19F0CCC0511115C1CFC0B7
S1130610F0D098F39923C9F35523B1F3951B550BE7
S1130620BB27AA2762177307840738F09F5F5F4FC1
S1130630220F331F441FAA1FA9F333D00E2E3AF002
S1130640E0E830D091505040E695001CCAF729D01C
S1130650FE2F27D0660F771F881FBB1F261737076B
S11306604807AB07B0E809F0BB0B802DBF01FF279B
S113067093585F4F2AF09E3F510568F092C0DCC04A
S11306805F3FECF3983EDCF3869577956795B795D5
S1130690F7959F5FC9F7880F911D9695879597F9F0
S11306A00895E1E0660F771F881FBB1F6217730769
S11306B08407BA0720F0621B730B840BBA0BEE1F7E
S11306C088F7E095089504D06894B111B5C00895F1
S11306D098D088F09F5790F0B92F9927B751A0F080
S11306E0D1F0660F771F881F991F1AF0BA95C9F7C2
S11306F012C0B13081F09FD0B1E008959CC0672F43
S1130700782F8827B85F39F0B93FCCF38695779571
S11307106795B395D9F73EF490958095709561955A
S11307207F4F8F4F9F4F0895E89409C097FB3EF485
S113073090958095709561957F4F8F4F9F4F99232A
S1130740A9F0F92F96E9BB279395F69587957795A8
S11307506795B795F111F8CFFAF4BB0F11F460FF68
S11307601BC06F5F7F4F8F4F9F4F16C0882311F0C0
S113077096E911C0772321F09EE8872F762F05C0D4
S1130780662371F096E8862F70E060E02AF09A956F
S1130790660F771F881FDAF7880F9695879597F964
S11307A0089597F99F6780E870E060E008959FEFEF
S11307B080EC089500240A941616170618060906F4
S11307C0089500240A9412161306140605060895C3
S11307D0092E0394000C11F4882352F0BB0F40F44B
S11307E0BF2B11F460FF04C06F5F7F4F8F4F9F4F8B
S11307F0089557FD9058440F551F59F05F3F71F00D
S11308004795880F97FB991F61F09F3F79F0879573
S11308100895121613061406551FF2CF4695F1DFFC
S113082008C0161617061806991FF1CF869571058C
S1130830610508940895E894BB2766277727CB01C0
S113084097F908950BD0C4CFB5DF28F0BADF18F0BC
S1130850952309F0A6CFABCF1124EECFCADFA0F3C6
S1130860959FD1F3950F50E0551F629FF001729F41
S1130870BB27F00DB11D639FAA27F00DB11DAA1F60
S1130880649F6627B00DA11D661F829F2227B00DAD
S1130890A11D621F739FB00DA11D621F839FA00D38
S11308A0611D221F749F3327A00D611D231F849F88
S11308B0600D211D822F762F6A2F11249F575040DF
S11308C08AF0E1F088234AF0EE0FFF1FBB1F661F7A
S11308D0771F881F91505040A9F79E3F510570F033
S11308E060CFAACF5F3FECF3983EDCF38695779513
S11308F06795B795F795E7959F5FC1F7FE2B880F2E
S1110900911D9695879597F90895F894FFCF69
S9030000FC
