S00C0000414443372E7372656319
S11300000C942A000C9447000C9447000C9447006D
S11300100C9447000C9447000C9447000C94470040
S11300200C9447000C9447000C9447000C94470030
S11300300C9447000C9447000C9447000C94470020
S11300400C9447000C9447000C9447000C94470010
S11300500C94470011241FBECFE5D8E0DEBFCDBF0E
S113006010E0A0E6B0E0E4E9F7E002C005900D92EC
S1130070A036B107D9F710E0A0E6B0E001C01D92A8
S1130080A436B107E1F70E9449000C94C8030C940C
S113009000008FEF81BB8FE39CE90197F1F700C06B
S11300A0000080E090E00E947B0080E00E946C00F1
S11300B080E090E060E971E00E949C009093610010
S11300C0809360000E940E0190936300809362000D
S11300D0E8CF87E58DB90895EFE3F1E03197F1F7C3
S11300E000C00000882329F481E0859B03C080E0E0
S11300F0089580E00895CF93DF93EC018D98959A4D
S1130100BD9ABF9ABC9ABE988C9A8D98C59AC79A84
S1130110C49AC69A949A0E946900209751F49498BC
S113012080E88FB9779BFECF81EC8FB9779BFECFA8
S1130130949ADF91CF910895EF92FF920F931F93BA
S1130140CF93DF93EC018B010E9469008FE391E070
S11301500197F1F700C000002097B9F4949881E06A
S11301608FB9779BFECF8FEF8FB9779BFECF8FB17F
S1130170949A949892E09FB9779BFECF9FEF9FB992
S1130180779BFECF2FB1949A02C080E020E0EFE38A
S1130190F1E03197F1F700C00000C82FDD27C7FD5B
S11301A0D0959C2F8827C22FDD27C7FDD095C80F77
S11301B0D91FB801882777FD8095982F0E94D9020E
S11301C07B018C01D595C795BE01882777FD809565
S11301D0982F0E94D9029B01AC01C801B7010E946B
S11301E0650320E030E040E251E40E94650320E032
S11301F030E040E058E30E94650320E030E040E056
S11302005FE30E94DA010E94A602862F972FDF91F6
S1130210CF911F910F91FF90EF9008952F923F92ED
S11302204F925F926F927F928F929F92AF92BF9202
S1130230CF92DF92EF92FF920F931F93DF93CF93AE
S113024000D000D0CDB7DEB79C01B901882777FD77
S11302508095982F0E94D90220E030E040E251E4DA
S11302600E943E02F62E072F182FE92E2F2D302F35
S1130270412F5E2D0E94650369837A838B839C835F
S11302802F2D302F412F5E2D0E946503562E472EB1
S1130290382E292E2F2D302F412F5E2D0E946503DD
S11302A0D62EC72EB82EA92E2F2D302F412F5E2DDE
S11302B00E9465032EE837E94FE25FE20E9465037E
S11302C03B014C016D2D7C2D8B2D9A2D2DE23DE7AC
S11302D04DEF52E30E9465039B01AC01C401B301DD
S11302E00E94D9015B016C01652D742D832D922D23
S11302F02FE336E840EA56E30E9465039B01AC0114
S1130300C601B5010E94D9015B016C0159814A8182
S11303103B812C81652F742F832F922F2EED3EE38A
S11303204BE25BE30E9465039B01AC01C601B5018E
S11303300E94DA015B016C016F2D702F812F9E2DBD
S113034029E134E04EE050E40E9465039B01AC01D6
S1130350C601B5010E94DA0126E636EE41E753E410
S11303600E94D90120E030E040E251E40E9465039C
S113037020E030E040E05FE30E94DA010E94A60240
S1130380862F972F0F900F900F900F90CF91DF91A2
S11303901F910F91FF90EF90DF90CF90BF90AF909F
S11303A09F908F907F906F905F904F903F902F9091
S11303B008955058BB27AA270ED04DC13ED130F026
S11303C043D120F031F49F3F11F41EF433C10EF4F5
S11303D0E095E7FB29C1E92F4FD180F3BA176207F3
S11303E073078407950718F071F49EF567C10EF43E
S11303F0E0950B2EBA2FA02D0B01B90190010C0131
S1130400CA01A0011124FF27591B99F0593F50F448
S1130410503E68F11A16F040A22F232F342F4427A0
S1130420585FF3CF469537952795A795F040539598
S1130430C9F77EF41F16BA0B620B730B840BBAF068
S11304409150A1F0FF0FBB1F661F771F881FC2F7D3
S11304500EC0BA0F621F731F841F48F487957795E7
S11304606795B795F7959E3F08F0B3CF9395880F9E
S113047008F09927EE0F9795879508950CD0EBC057
S1130480E3D040F0DAD030F021F45F3F19F0CCC073
S1130490511115C1CFC0F0D098F39923C9F3552356
S11304A0B1F3951B550BBB27AA2762177307840763
S11304B038F09F5F5F4F220F331F441FAA1FA9F319
S11304C033D00E2E3AF0E0E830D091505040E6950B
S11304D0001CCAF729D0FE2F27D0660F771F881F6C
S11304E0BB1F261737074807AB07B0E809F0BB0B5B
S11304F0802DBF01FF2793585F4F2AF09E3F51057F
S113050068F092C0DCC05F3FECF3983EDCF3869564
S113051077956795B795F7959F5FC9F7880F911DF4
S11305209695879597F90895E1E0660F771F881FE0
S1130530BB1F621773078407BA0720F0621B730B93
S1130540840BBA0BEE1F88F7E095089504D06894E5
S1130550B111B5C0089598D088F09F5790F0B92F85
S11305609927B751A0F0D1F0660F771F881F991F04
S11305701AF0BA95C9F712C0B13081F09FD0B1E03A
S113058008959CC0672F782F8827B85F39F0B93F4A
S1130590CCF3869577956795B395D9F73EF4909506
S11305A08095709561957F4F8F4F9F4F0895E89484
S11305B009C097FB3EF490958095709561957F4FA7
S11305C08F4F9F4F9923A9F0F92F96E9BB27939555
S11305D0F695879577956795B795F111F8CFFAF465
S11305E0BB0F11F460FF1BC06F5F7F4F8F4F9F4F96
S11305F016C0882311F096E911C0772321F09EE8F4
S1130600872F762F05C0662371F096E8862F70E059
S113061060E02AF09A95660F771F881FDAF7880F33
S11306209695879597F9089597F99F6780E870E004
S113063060E008959FEF80EC089500240A94161654
S1130640170618060906089500240A9412161306BC
S1130650140605060895092E0394000C11F488234A
S113066052F0BB0F40F4BF2B11F460FF04C06F5F66
S11306707F4F8F4F9F4F089557FD9058440F551F3C
S113068059F05F3F71F04795880F97FB991F61F010
S11306909F3F79F087950895121613061406551F87
S11306A0F2CF4695F1DF08C0161617061806991FF3
S11306B0F1CF86957105610508940895E894BB27E8
S11306C066277727CB0197F908950BD0C4CFB5DF00
S11306D028F0BADF18F0952309F0A6CFABCF112488
S11306E0EECFCADFA0F3959FD1F3950F50E0551FCD
S11306F0629FF001729FBB27F00DB11D639FAA2773
S1130700F00DB11DAA1F649F6627B00DA11D661FC1
S1130710829F2227B00DA11D621F739FB00DA11DE2
S1130720621F839FA00D611D221F749F3327A00D9C
S1130730611D231F849F600D211D822F762F6A2F38
S113074011249F5750408AF0E1F088234AF0EE0FBD
S1130750FF1FBB1F661F771F881F91505040A9F7CA
S11307609E3F510570F060CFAACF5F3FECF3983EF7
S1130770DCF3869577956795B795F795E7959F5F31
S1130780C1F7FE2B880F911D9695879597F90895CB
S1070790F894FFCF07
S9030000FC
