S00C0000535049312E73726563FB
S11300000C942A000C943C000C943C000C943C008E
S11300100C943C000C943C000C943C000C943C006C
S11300200C943C000C943C000C943C000C943C005C
S11300300C943C000C943C000C943C000C943C004C
S11300400C943C000C943C000C943C000C943C003C
S11300500C943C0011241FBECFE5D8E0DEBFCDBF19
S113006010E0A0E6B0E001C01D92A136B107E1F7AF
S11300700E943E000C9486000C9400000E946B00C9
S11300808FE39CE90197F1F700C0000081E00E9432
S11300907A0081E00E947E000E94820080936000CA
S11300A082E00E947E000E9482008093600083E0D0
S11300B00E947E000E9482008093600084E00E947F
S11300C07E000E9482008093600085E00E947E0092
S11300D00E948200FFCF87B3806A87BBBE98BC9A18
S11300E0C49A6D986B986A98689A699870986C9A93
S11300F06E9A0895813009F4C49808958FB9779B56
S1130100FECF0895779BFECF8FB10895F894FFCF6B
S9030000FC
